{
  "abi": [
    {
      "inputs": [],
      "stateMutability": "nonpayable",
      "type": "constructor"
    },
    {
      "anonymous": false,
      "inputs": [
        {
          "indexed": true,
          "internalType": "contract QuizGame",
          "name": "quiz",
          "type": "address"
        }
      ],
      "name": "QuizCreated",
      "type": "event"
    },
    {
      "inputs": [
        {
          "internalType": "string",
          "name": "question",
          "type": "string"
        },
        {
          "internalType": "bytes32",
          "name": "answer",
          "type": "bytes32"
        }
      ],
      "name": "createQuiz",
      "outputs": [],
      "stateMutability": "nonpayable",
      "type": "function"
    },
    {
      "inputs": [],
      "name": "getQuizzes",
      "outputs": [
        {
          "internalType": "contract QuizGame[]",
          "name": "",
          "type": "address[]"
        }
      ],
      "stateMutability": "view",
      "type": "function"
    },
    {
      "inputs": [
        {
          "internalType": "uint256",
          "name": "",
          "type": "uint256"
        }
      ],
      "name": "quizzes",
      "outputs": [
        {
          "internalType": "contract QuizGame",
          "name": "",
          "type": "address"
        }
      ],
      "stateMutability": "view",
      "type": "function"
    }
  ],
  "bytecode": {
    "object": "0x608060405234801561001057600080fd5b5061093d806100206000396000f3fe608060405234801561001057600080fd5b50600436106100415760003560e01c80635ecd45b91461004657806388409afa14610064578063fc98a5981461008f575b600080fd5b61004e6100a4565b60405161005b91906101f0565b60405180910390f35b61007761007236600461023d565b610106565b6040516001600160a01b03909116815260200161005b565b6100a261009d36600461026c565b610130565b005b606060008054806020026020016040519081016040528092919081815260200182805480156100fc57602002820191906000526020600020905b81546001600160a01b031681526001909101906020018083116100de575b5050505050905090565b6000818154811061011657600080fd5b6000918252602090912001546001600160a01b0316905081565b60008282604051610140906101e3565b61014b929190610321565b604051809103906000f080158015610167573d6000803e3d6000fd5b50600080546001810182558180527f290decd9548b62a8d60345a988386fc84ba6bc95484008f6362f93160ef3e5630180546001600160a01b0319166001600160a01b038416908117909155604051929350917f0265693c8d95ffd63866cae4d18980d296337fa815a89b42926fc64fda65729c9190a2505050565b6105b28061037f83390190565b6020808252825182820181905260009190848201906040850190845b818110156102315783516001600160a01b03168352928401929184019160010161020c565b50909695505050505050565b60006020828403121561024f57600080fd5b5035919050565b634e487b7160e01b600052604160045260246000fd5b6000806040838503121561027f57600080fd5b823567ffffffffffffffff8082111561029757600080fd5b818501915085601f8301126102ab57600080fd5b8135818111156102bd576102bd610256565b604051601f8201601f19908116603f011681019083821181831017156102e5576102e5610256565b816040528281528860208487010111156102fe57600080fd5b826020860160208301376000602093820184015298969091013596505050505050565b604081526000835180604084015260005b8181101561034f5760208187018101516060868401015201610332565b81811115610361576000606083860101525b50602083019390935250601f91909101601f19160160600191905056fe60806040526831323331323331323360b81b60005534801561002057600080fd5b506040516105b23803806105b283398101604081905261003f9161010b565b815161005290600290602085019061005c565b506001555061021d565b828054610068906101e3565b90600052602060002090601f01602090048101928261008a57600085556100d0565b82601f106100a357805160ff19168380011785556100d0565b828001600101855582156100d0579182015b828111156100d05782518255916020019190600101906100b5565b506100dc9291506100e0565b5090565b5b808211156100dc57600081556001016100e1565b634e487b7160e01b600052604160045260246000fd5b6000806040838503121561011e57600080fd5b82516001600160401b038082111561013557600080fd5b818501915085601f83011261014957600080fd5b81518181111561015b5761015b6100f5565b604051601f8201601f19908116603f01168101908382118183101715610183576101836100f5565b8160405282815260209350888484870101111561019f57600080fd5b600091505b828210156101c157848201840151818301850152908301906101a4565b828211156101d25760008484830101525b969092015195979596505050505050565b600181811c908216806101f757607f821691505b60208210810361021757634e487b7160e01b600052602260045260246000fd5b50919050565b6103868061022c6000396000f3fe6080604052600436106100435760003560e01c80633fad9ae0146100ae5780634eee59b3146100d9578063a597201d146100fb578063bfa0b1331461011f5761007e565b3661007e576040514781527f6163bf8b8285097ba88fb3225378b6ecba49a8c21a5ee8fe42de53f0e06ab727906020015b60405180910390a1005b6040514781527f6163bf8b8285097ba88fb3225378b6ecba49a8c21a5ee8fe42de53f0e06ab72790602001610074565b3480156100ba57600080fd5b506100c3610135565b6040516100d0919061025e565b60405180910390f35b3480156100e557600080fd5b506100f96100f43660046102b3565b6101c3565b005b34801561010757600080fd5b5061011160015481565b6040519081526020016100d0565b34801561012b57600080fd5b5061011160005481565b6002805461014290610325565b80601f016020809104026020016040519081016040528092919081815260200182805461016e90610325565b80156101bb5780601f10610190576101008083540402835291602001916101bb565b820191906000526020600020905b81548152906001019060200180831161019e57829003601f168201915b505050505081565b60015460005483836040516020016101dd9392919061035f565b60405160208183030381529060405280519060200120146101fd57600080fd5b471561025a576040517f2d98f000c881b01994fb29ae677a074705de44ff8360f0dc3e173c9cfa1eb13690600090a160405133904780156108fc02916000818181858888f19350505050158015610258573d6000803e3d6000fd5b505b5050565b600060208083528351808285015260005b8181101561028b5785810183015185820160400152820161026f565b8181111561029d576000604083870101525b50601f01601f1916929092016040019392505050565b600080602083850312156102c657600080fd5b823567ffffffffffffffff808211156102de57600080fd5b818501915085601f8301126102f257600080fd5b81358181111561030157600080fd5b86602082850101111561031357600080fd5b60209290920196919550909350505050565b600181811c9082168061033957607f821691505b60208210810361035957634e487b7160e01b600052602260045260246000fd5b50919050565b83815281836020830137600091016020019081529291505056fea164736f6c634300080d000aa164736f6c634300080d000a",
    "linkReferences": {}
  }
}